{
  "contractName": "DocumentNotarization",
  "abi": [
    {
      "inputs": [
        {
          "internalType": "address",
          "name": "",
          "type": "address"
        },
        {
          "internalType": "uint256",
          "name": "",
          "type": "uint256"
        }
      ],
      "name": "documents",
      "outputs": [
        {
          "internalType": "uint256",
          "name": "timestamp",
          "type": "uint256"
        },
        {
          "internalType": "string",
          "name": "documentHash",
          "type": "string"
        }
      ],
      "stateMutability": "view",
      "type": "function"
    },
    {
      "inputs": [
        {
          "internalType": "string",
          "name": "_documentHash",
          "type": "string"
        }
      ],
      "name": "notarizeDocument",
      "outputs": [],
      "stateMutability": "nonpayable",
      "type": "function"
    },
    {
      "inputs": [],
      "name": "getDocuments",
      "outputs": [
        {
          "components": [
            {
              "internalType": "uint256",
              "name": "timestamp",
              "type": "uint256"
            },
            {
              "internalType": "string",
              "name": "documentHash",
              "type": "string"
            }
          ],
          "internalType": "struct DocumentNotarization.Document[]",
          "name": "",
          "type": "tuple[]"
        }
      ],
      "stateMutability": "view",
      "type": "function"
    }
  ],
  "bytecode": "0x608060405234801561000f575f80fd5b50610ab78061001d5f395ff3fe608060405234801561000f575f80fd5b506004361061003f575f3560e01c806363398844146100435780636a33bf8714610074578063ef2d870014610090575b5f80fd5b61005d600480360381019061005891906103d4565b6100ae565b60405161006b9291906104ab565b60405180910390f35b61008e60048036038101906100899190610605565b61016d565b005b610098610207565b6040516100a59190610798565b60405180910390f35b5f602052815f5260405f2081815481106100c6575f80fd5b905f5260205f2090600202015f9150915050805f0154908060010180546100ec906107e5565b80601f0160208091040260200160405190810160405280929190818152602001828054610118906107e5565b80156101635780601f1061013a57610100808354040283529160200191610163565b820191905f5260205f20905b81548152906001019060200180831161014657829003601f168201915b5050505050905082565b5f803373ffffffffffffffffffffffffffffffffffffffff1673ffffffffffffffffffffffffffffffffffffffff1681526020019081526020015f20604051806040016040528042815260200183815250908060018154018082558091505060019003905f5260205f2090600202015f909190919091505f820151815f0155602082015181600101908161020191906109b2565b50505050565b60605f803373ffffffffffffffffffffffffffffffffffffffff1673ffffffffffffffffffffffffffffffffffffffff1681526020019081526020015f20805480602002602001604051908101604052809291908181526020015f905b8282101561032d578382905f5260205f2090600202016040518060400160405290815f820154815260200160018201805461029e906107e5565b80601f01602080910402602001604051908101604052809291908181526020018280546102ca906107e5565b80156103155780601f106102ec57610100808354040283529160200191610315565b820191905f5260205f20905b8154815290600101906020018083116102f857829003601f168201915b50505050508152505081526020019060010190610264565b50505050905090565b5f604051905090565b5f80fd5b5f80fd5b5f73ffffffffffffffffffffffffffffffffffffffff82169050919050565b5f61037082610347565b9050919050565b61038081610366565b811461038a575f80fd5b50565b5f8135905061039b81610377565b92915050565b5f819050919050565b6103b3816103a1565b81146103bd575f80fd5b50565b5f813590506103ce816103aa565b92915050565b5f80604083850312156103ea576103e961033f565b5b5f6103f78582860161038d565b9250506020610408858286016103c0565b9150509250929050565b61041b816103a1565b82525050565b5f81519050919050565b5f82825260208201905092915050565b5f5b8381101561045857808201518184015260208101905061043d565b5f8484015250505050565b5f601f19601f8301169050919050565b5f61047d82610421565b610487818561042b565b935061049781856020860161043b565b6104a081610463565b840191505092915050565b5f6040820190506104be5f830185610412565b81810360208301526104d08184610473565b90509392505050565b5f80fd5b5f80fd5b7f4e487b71000000000000000000000000000000000000000000000000000000005f52604160045260245ffd5b61051782610463565b810181811067ffffffffffffffff82111715610536576105356104e1565b5b80604052505050565b5f610548610336565b9050610554828261050e565b919050565b5f67ffffffffffffffff821115610573576105726104e1565b5b61057c82610463565b9050602081019050919050565b828183375f83830152505050565b5f6105a96105a484610559565b61053f565b9050828152602081018484840111156105c5576105c46104dd565b5b6105d0848285610589565b509392505050565b5f82601f8301126105ec576105eb6104d9565b5b81356105fc848260208601610597565b91505092915050565b5f6020828403121561061a5761061961033f565b5b5f82013567ffffffffffffffff81111561063757610636610343565b5b610643848285016105d8565b91505092915050565b5f81519050919050565b5f82825260208201905092915050565b5f819050602082019050919050565b61067e816103a1565b82525050565b5f82825260208201905092915050565b5f61069e82610421565b6106a88185610684565b93506106b881856020860161043b565b6106c181610463565b840191505092915050565b5f604083015f8301516106e15f860182610675565b50602083015184820360208601526106f98282610694565b9150508091505092915050565b5f61071183836106cc565b905092915050565b5f602082019050919050565b5f61072f8261064c565b6107398185610656565b93508360208202850161074b85610666565b805f5b8581101561078657848403895281516107678582610706565b945061077283610719565b925060208a0199505060018101905061074e565b50829750879550505050505092915050565b5f6020820190508181035f8301526107b08184610725565b905092915050565b7f4e487b71000000000000000000000000000000000000000000000000000000005f52602260045260245ffd5b5f60028204905060018216806107fc57607f821691505b60208210810361080f5761080e6107b8565b5b50919050565b5f819050815f5260205f209050919050565b5f6020601f8301049050919050565b5f82821b905092915050565b5f600883026108717fffffffffffffffffffffffffffffffffffffffffffffffffffffffffffffffff82610836565b61087b8683610836565b95508019841693508086168417925050509392505050565b5f819050919050565b5f6108b66108b16108ac846103a1565b610893565b6103a1565b9050919050565b5f819050919050565b6108cf8361089c565b6108e36108db826108bd565b848454610842565b825550505050565b5f90565b6108f76108eb565b6109028184846108c6565b505050565b5b818110156109255761091a5f826108ef565b600181019050610908565b5050565b601f82111561096a5761093b81610815565b61094484610827565b81016020851015610953578190505b61096761095f85610827565b830182610907565b50505b505050565b5f82821c905092915050565b5f61098a5f198460080261096f565b1980831691505092915050565b5f6109a2838361097b565b9150826002028217905092915050565b6109bb82610421565b67ffffffffffffffff8111156109d4576109d36104e1565b5b6109de82546107e5565b6109e9828285610929565b5f60209050601f831160018114610a1a575f8415610a08578287015190505b610a128582610997565b865550610a79565b601f198416610a2886610815565b5f5b82811015610a4f57848901518255600182019150602085019450602081019050610a2a565b86831015610a6c5784890151610a68601f89168261097b565b8355505b6001600288020188555050505b50505050505056fea26469706673582212204fd0dc95cb620aa2b0b187f2c9dac02f393ca36d5df05bcf37a8b9c49e00cd0464736f6c63430008150033",
  "immutableReferences": {},
  "source": "// SPDX-License-Identifier: MIT\npragma solidity ^0.8.0;\n\ncontract DocumentNotarization {\n    struct Document {\n        uint256 timestamp;\n        string documentHash;\n    }\n\n    mapping(address => Document[]) public documents;\n\n    function notarizeDocument(string memory _documentHash) public {\n        documents[msg.sender].push(Document(block.timestamp, _documentHash));\n    }\n\n    function getDocuments() public view returns (Document[] memory) {\n        return documents[msg.sender];\n    }\n}\n",
  "sourcePath": "/Users/davida./Desktop/noty/notarizacion-digital/contracts/DocumentNotarization.sol",
  "compiler": {
    "name": "solc",
    "version": "0.8.21+commit.d9974bed.Emscripten.clang"
  },
  "schemaVersion": "3.4.16",
  "updatedAt": "2024-09-02T14:28:39.027Z",
  "devdoc": {
    "kind": "dev",
    "methods": {},
    "version": 1
  },
  "userdoc": {
    "kind": "user",
    "methods": {},
    "version": 1
  }
}